{
  "contractName": "ReactExample",
  "abi": [
    {
      "constant": false,
      "inputs": [],
      "name": "setExperimentInMotion",
      "outputs": [
        {
          "name": "",
          "type": "bool"
        }
      ],
      "payable": true,
      "stateMutability": "payable",
      "type": "function"
    },
    {
      "constant": true,
      "inputs": [],
      "name": "getState",
      "outputs": [
        {
          "name": "",
          "type": "string"
        }
      ],
      "payable": false,
      "stateMutability": "view",
      "type": "function"
    },
    {
      "constant": false,
      "inputs": [],
      "name": "kill",
      "outputs": [],
      "payable": false,
      "stateMutability": "nonpayable",
      "type": "function"
    },
    {
      "constant": true,
      "inputs": [],
      "name": "pseudoRandomResult",
      "outputs": [
        {
          "name": "",
          "type": "bool"
        }
      ],
      "payable": false,
      "stateMutability": "view",
      "type": "function"
    },
    {
      "constant": true,
      "inputs": [],
      "name": "getSecret",
      "outputs": [
        {
          "name": "",
          "type": "string"
        }
      ],
      "payable": false,
      "stateMutability": "view",
      "type": "function"
    },
    {
      "constant": false,
      "inputs": [
        {
          "name": "newState",
          "type": "string"
        }
      ],
      "name": "setState",
      "outputs": [],
      "payable": true,
      "stateMutability": "payable",
      "type": "function"
    },
    {
      "constant": true,
      "inputs": [],
      "name": "you_awesome",
      "outputs": [
        {
          "name": "",
          "type": "string"
        }
      ],
      "payable": false,
      "stateMutability": "view",
      "type": "function"
    },
    {
      "inputs": [],
      "payable": false,
      "stateMutability": "nonpayable",
      "type": "constructor"
    },
    {
      "payable": true,
      "stateMutability": "payable",
      "type": "fallback"
    },
    {
      "anonymous": false,
      "inputs": [
        {
          "indexed": false,
          "name": "result",
          "type": "bool"
        }
      ],
      "name": "ExperimentComplete",
      "type": "event"
    }
  ],
  "bytecode": "0x6060604052341561000f57600080fd5b336000806101000a81548173ffffffffffffffffffffffffffffffffffffffff021916908373ffffffffffffffffffffffffffffffffffffffff1602179055506040805190810160405280601081526020017f596f752061726520617765736f6d6521000000000000000000000000000000008152506001908051906020019061009a929190610138565b506040805190810160405280600b81526020017f7365637265742064617461000000000000000000000000000000000000000000815250600290805190602001906100e6929190610138565b506040805190810160405280600d81526020017f696e697469616c2073746174650000000000000000000000000000000000000081525060039080519060200190610132929190610138565b506101dd565b828054600181600116156101000203166002900490600052602060002090601f016020900481019282601f1061017957805160ff19168380011785556101a7565b828001600101855582156101a7579182015b828111156101a657825182559160200191906001019061018b565b5b5090506101b491906101b8565b5090565b6101da91905b808211156101d65760008160009055506001016101be565b5090565b90565b610789806101ec6000396000f300606060405260043610610083576000357c0100000000000000000000000000000000000000000000000000000000900463ffffffff168063170946c7146100885780631865c57d146100aa57806341c0e1b51461013857806349fad5dd1461014d5780635b9fdc301461017a57806368794b8714610208578063e1f580841461025a575b600080fd5b6100906102e8565b604051808215151515815260200191505060405180910390f35b34156100b557600080fd5b6100bd6103f4565b6040518080602001828103825283818151815260200191508051906020019080838360005b838110156100fd5780820151818401526020810190506100e2565b50505050905090810190601f16801561012a5780820380516001836020036101000a031916815260200191505b509250505060405180910390f35b341561014357600080fd5b61014b61049c565b005b341561015857600080fd5b610160610531565b604051808215151515815260200191505060405180910390f35b341561018557600080fd5b61018d610544565b6040518080602001828103825283818151815260200191508051906020019080838360005b838110156101cd5780820151818401526020810190506101b2565b50505050905090810190601f1680156101fa5780820380516001836020036101000a031916815260200191505b509250505060405180910390f35b610258600480803590602001908201803590602001908080601f016020809104026020016040519081016040528093929190818152602001838380828437820191505050505050919050506105ec565b005b341561026557600080fd5b61026d610606565b6040518080602001828103825283818151815260200191508051906020019080838360005b838110156102ad578082015181840152602081019050610292565b50505050905090810190601f1680156102da5780820380516001836020036101000a031916815260200191505b509250505060405180910390f35b6000803360003634604051808573ffffffffffffffffffffffffffffffffffffffff1673ffffffffffffffffffffffffffffffffffffffff166c01000000000000000000000000028152601401848480828437820191505082815260200194505050505060405180910390209050600a600102600019168160001916111561038a576001600460006101000a81548160ff0219169083151502179055506103a6565b6000600460006101000a81548160ff0219169083151502179055505b7febfaed7fb7b0aa2190100184364eeaa3c730502de5f7702e86e6644f5a06e7f0600460009054906101000a900460ff16604051808215151515815260200191505060405180910390a15090565b6103fc6106a4565b60038054600181600116156101000203166002900480601f0160208091040260200160405190810160405280929190818152602001828054600181600116156101000203166002900480156104925780601f1061046757610100808354040283529160200191610492565b820191906000526020600020905b81548152906001019060200180831161047557829003601f168201915b5050505050905090565b6000809054906101000a900473ffffffffffffffffffffffffffffffffffffffff1673ffffffffffffffffffffffffffffffffffffffff163373ffffffffffffffffffffffffffffffffffffffff161415156104f757600080fd5b6000809054906101000a900473ffffffffffffffffffffffffffffffffffffffff1673ffffffffffffffffffffffffffffffffffffffff16ff5b600460009054906101000a900460ff1681565b61054c6106a4565b60028054600181600116156101000203166002900480601f0160208091040260200160405190810160405280929190818152602001828054600181600116156101000203166002900480156105e25780601f106105b7576101008083540402835291602001916105e2565b820191906000526020600020905b8154815290600101906020018083116105c557829003601f168201915b5050505050905090565b80600390805190602001906106029291906106b8565b5050565b60018054600181600116156101000203166002900480601f01602080910402602001604051908101604052809291908181526020018280546001816001161561010002031660029004801561069c5780601f106106715761010080835404028352916020019161069c565b820191906000526020600020905b81548152906001019060200180831161067f57829003601f168201915b505050505081565b602060405190810160405280600081525090565b828054600181600116156101000203166002900490600052602060002090601f016020900481019282601f106106f957805160ff1916838001178555610727565b82800160010185558215610727579182015b8281111561072657825182559160200191906001019061070b565b5b5090506107349190610738565b5090565b61075a91905b8082111561075657600081600090555060010161073e565b5090565b905600a165627a7a7230582021b119524ba76cd921b53e50eee98fc33743428fc746682e293fc519430dbb0f0029",
  "source": "pragma solidity ^0.4.18;\n\ncontract ReactExample{\n    address private owner;\n    string public you_awesome;\n    string private secret;\n    string private state;\n    bool public pseudoRandomResult;\n    event ExperimentComplete(bool result);\n\n    function ReactExample() public {\n        owner = msg.sender;\n        you_awesome = \"You are awesome!\";\n        secret = \"secret data\";\n        state = \"initial state\";\n    }\n\n    function kill() public {\n        require(msg.sender==owner);\n        selfdestruct(owner);\n    }\n\n    function() public payable{\n        revert();\n    }\n\n    function getSecret() public view returns(string){\n        return secret;\n    }\n\n    function getState() public view returns(string){\n        return state;\n    }\n\n    function setState(string newState) public payable{\n        state = newState;\n    }\n\n    function setExperimentInMotion() public payable returns (bool){\n        bytes32 _pseudoRandomResult=keccak256(msg.sender,msg.data,msg.value);\n        if (_pseudoRandomResult>bytes32(10)) pseudoRandomResult=true;\n        else pseudoRandomResult=false;\n\n        ExperimentComplete(pseudoRandomResult);\n    }\n\n\n}\n",
  "sourcePath": "/home/tzy/blockchain/react1/contracts/ReactExample.sol",
  "compiler": {
    "name": "solc",
    "version": "0.4.18+commit.9cf6e910.Emscripten.clang"
  },
  "schemaVersion": "1.0.1",
  "updatedAt": "2018-03-02T07:41:10.779Z"
}