{
  "contractName": "SimpleStorage",
  "abi": [
    {
      "constant": true,
      "inputs": [
        {
          "name": "Key",
          "type": "string"
        }
      ],
      "name": "getUser",
      "outputs": [
        {
          "name": "",
          "type": "address"
        }
      ],
      "payable": false,
      "stateMutability": "view",
      "type": "function"
    },
    {
      "constant": true,
      "inputs": [
        {
          "name": "Key",
          "type": "string"
        }
      ],
      "name": "getFileDate",
      "outputs": [
        {
          "name": "",
          "type": "uint256"
        }
      ],
      "payable": false,
      "stateMutability": "view",
      "type": "function"
    },
    {
      "constant": true,
      "inputs": [
        {
          "name": "Key",
          "type": "string"
        }
      ],
      "name": "getFile",
      "outputs": [
        {
          "name": "",
          "type": "bytes32"
        }
      ],
      "payable": false,
      "stateMutability": "view",
      "type": "function"
    },
    {
      "constant": false,
      "inputs": [
        {
          "name": "text",
          "type": "bytes32"
        },
        {
          "name": "Key",
          "type": "string"
        }
      ],
      "name": "addFile",
      "outputs": [],
      "payable": true,
      "stateMutability": "payable",
      "type": "function"
    },
    {
      "inputs": [],
      "payable": true,
      "stateMutability": "payable",
      "type": "constructor"
    }
  ],
  "bytecode": "0x6060604052336000806101000a81548173ffffffffffffffffffffffffffffffffffffffff021916908373ffffffffffffffffffffffffffffffffffffffff160217905550610949806100536000396000f300606060405260043610610062576000357c0100000000000000000000000000000000000000000000000000000000900463ffffffff16806331feb671146100675780637082cf2414610104578063e0876aa814610175578063f61ac3e4146101ee575b600080fd5b341561007257600080fd5b6100c2600480803590602001908201803590602001908080601f0160208091040260200160405190810160405280939291908181526020018383808284378201915050505050509190505061024d565b604051808273ffffffffffffffffffffffffffffffffffffffff1673ffffffffffffffffffffffffffffffffffffffff16815260200191505060405180910390f35b341561010f57600080fd5b61015f600480803590602001908201803590602001908080601f01602080910402602001604051908101604052809392919081815260200183838082843782019150505050505091905050610371565b6040518082815260200191505060405180910390f35b341561018057600080fd5b6101d0600480803590602001908201803590602001908080601f01602080910402602001604051908101604052809392919081815260200183838082843782019150505050505091905050610475565b60405180826000191660001916815260200191505060405180910390f35b61024b60048080356000191690602001909190803590602001908201803590602001908080601f01602080910402602001604051908101604052809392919081815260200183838082843782019150505050505091905050610579565b005b600080600102600019166001836040518082805190602001908083835b60208310151561028f578051825260208201915060208101905060208303925061026a565b6001836020036101000a03801982511681845116808217855250505050505090500191505090815260200160405180910390206000015460001916141515610367576001826040518082805190602001908083835b60208310151561030957805182526020820191506020810190506020830392506102e4565b6001836020036101000a038019825116818451168082178552505050505050905001915050908152602001604051809103902060020160009054906101000a900473ffffffffffffffffffffffffffffffffffffffff16905061036c565b600080fd5b919050565b600080600102600019166001836040518082805190602001908083835b6020831015156103b3578051825260208201915060208101905060208303925061038e565b6001836020036101000a0380198251168184511680821785525050505050509050019150509081526020016040518091039020600001546000191614151561046b576001826040518082805190602001908083835b60208310151561042d5780518252602082019150602081019050602083039250610408565b6001836020036101000a0380198251168184511680821785525050505050509050019150509081526020016040518091039020600101549050610470565b600080fd5b919050565b600080600102600019166001836040518082805190602001908083835b6020831015156104b75780518252602082019150602081019050602083039250610492565b6001836020036101000a0380198251168184511680821785525050505050509050019150509081526020016040518091039020600001546000191614151561056f576001826040518082805190602001908083835b602083101515610531578051825260208201915060208101905060208303925061050c565b6001836020036101000a0380198251168184511680821785525050505050509050019150509081526020016040518091039020600001549050610574565b600080fd5b919050565b6000600102600019166001826040518082805190602001908083835b6020831015156105ba5780518252602082019150602081019050602083039250610595565b6001836020036101000a0380198251168184511680821785525050505050509050019150509081526020016040518091039020600001546000191614151561060157600080fd5b6002805480600101828161061591906107d8565b91600052602060002090016000839091909150908051906020019061063b929190610804565b5050816001826040518082805190602001908083835b6020831015156106765780518252602082019150602081019050602083039250610651565b6001836020036101000a03801982511681845116808217855250505050505090500191505090815260200160405180910390206000018160001916905550426001826040518082805190602001908083835b6020831015156106ed57805182526020820191506020810190506020830392506106c8565b6001836020036101000a038019825116818451168082178552505050505050905001915050908152602001604051809103902060010181905550336001826040518082805190602001908083835b602083101515610760578051825260208201915060208101905060208303925061073b565b6001836020036101000a038019825116818451168082178552505050505050905001915050908152602001604051809103902060020160006101000a81548173ffffffffffffffffffffffffffffffffffffffff021916908373ffffffffffffffffffffffffffffffffffffffff1602179055505050565b8154818355818115116107ff578183600052602060002091820191016107fe9190610884565b5b505050565b828054600181600116156101000203166002900490600052602060002090601f016020900481019282601f1061084557805160ff1916838001178555610873565b82800160010185558215610873579182015b82811115610872578251825591602001919060010190610857565b5b50905061088091906108b0565b5090565b6108ad91905b808211156108a957600081816108a091906108d5565b5060010161088a565b5090565b90565b6108d291905b808211156108ce5760008160009055506001016108b6565b5090565b90565b50805460018160011615610100020316600290046000825580601f106108fb575061091a565b601f01602090049060005260206000209081019061091991906108b0565b5b505600a165627a7a7230582065554e0802cffb211895251819c648b889d693e92b353d568369f01a23d993220029",
  "source": "pragma solidity ^0.4.18;\ncontract SimpleStorage{\n    address Admin;\n    mapping(string => File) Files;\n    string[] FileKey;\n    \n    struct File{\n        bytes32 FileBase58;\n        uint FileDate;\n        address User;\n    }\n    \n    function SimpleStorage() public payable{\n        Admin = msg.sender;\n    }\n    \n    modifier onlyAdmin() {\n        if(msg.sender != Admin)\n            revert();\n        _;\n    }\n    \n    function addFile(bytes32 text,string Key) public payable{\n        if(Files[Key].FileBase58 !=bytes32(0x0000000000000000000000000000000000000000000000000000000000000000))\n             {\n                revert();\n             }\n        else\n             {\n                 FileKey.push(Key);\n                 Files[Key].FileBase58 = text;\n                 Files[Key].FileDate = now;\n                 Files[Key].User = msg.sender;\n             }\n    }\n    \n    function getFile(string Key) constant public returns(bytes32){\n            if(Files[Key].FileBase58 !=bytes32(0x0000000000000000000000000000000000000000000000000000000000000000))\n                {return Files[Key].FileBase58;}\n            else{revert();}\n        }\n\n    function getFileDate(string Key) constant public returns(uint){\n         if(Files[Key].FileBase58 !=bytes32(0x0000000000000000000000000000000000000000000000000000000000000000))\n            {return Files[Key].FileDate;}\n         else{revert();}\n    }\n\n    function getUser(string Key) constant public returns(address){\n         if(Files[Key].FileBase58 !=bytes32(0x0000000000000000000000000000000000000000000000000000000000000000))\n            {return Files[Key].User;}\n         else{revert();}\n    }\n\n}\n\n",
  "sourcePath": "/home/tzy/blockchain/react1/contracts/SimpleStorage.sol",
  "compiler": {
    "name": "solc",
    "version": "0.4.18+commit.9cf6e910.Emscripten.clang"
  },
  "schemaVersion": "1.0.1",
  "updatedAt": "2018-04-01T08:27:01.285Z"
}